{"abi":[{"type":"constructor","inputs":[{"name":"_admin","type":"address","internalType":"address"},{"name":"_token","type":"address","internalType":"address"}],"stateMutability":"nonpayable"},{"type":"function","name":"DEFAULT_ADMIN_ROLE","inputs":[],"outputs":[{"name":"","type":"bytes32","internalType":"bytes32"}],"stateMutability":"view"},{"type":"function","name":"MIN_STAKE_REQUIREMENT","inputs":[],"outputs":[{"name":"","type":"uint256","internalType":"uint256"}],"stateMutability":"view"},{"type":"function","name":"UPDATER_ROLE","inputs":[],"outputs":[{"name":"","type":"bytes32","internalType":"bytes32"}],"stateMutability":"view"},{"type":"function","name":"getRoleAdmin","inputs":[{"name":"role","type":"bytes32","internalType":"bytes32"}],"outputs":[{"name":"","type":"bytes32","internalType":"bytes32"}],"stateMutability":"view"},{"type":"function","name":"getTagData","inputs":[{"name":"targetAddress","type":"address","internalType":"address"}],"outputs":[{"name":"","type":"string","internalType":"string"},{"name":"","type":"bool","internalType":"bool"}],"stateMutability":"view"},{"type":"function","name":"grantRole","inputs":[{"name":"role","type":"bytes32","internalType":"bytes32"},{"name":"account","type":"address","internalType":"address"}],"outputs":[],"stateMutability":"nonpayable"},{"type":"function","name":"grantUpdater","inputs":[{"name":"updater","type":"address","internalType":"address"}],"outputs":[],"stateMutability":"nonpayable"},{"type":"function","name":"hasRole","inputs":[{"name":"role","type":"bytes32","internalType":"bytes32"},{"name":"account","type":"address","internalType":"address"}],"outputs":[{"name":"","type":"bool","internalType":"bool"}],"stateMutability":"view"},{"type":"function","name":"renounceRole","inputs":[{"name":"role","type":"bytes32","internalType":"bytes32"},{"name":"callerConfirmation","type":"address","internalType":"address"}],"outputs":[],"stateMutability":"nonpayable"},{"type":"function","name":"revokeRole","inputs":[{"name":"role","type":"bytes32","internalType":"bytes32"},{"name":"account","type":"address","internalType":"address"}],"outputs":[],"stateMutability":"nonpayable"},{"type":"function","name":"revokeUpdater","inputs":[{"name":"updater","type":"address","internalType":"address"}],"outputs":[],"stateMutability":"nonpayable"},{"type":"function","name":"stake","inputs":[{"name":"amount","type":"uint256","internalType":"uint256"}],"outputs":[],"stateMutability":"nonpayable"},{"type":"function","name":"stakes","inputs":[{"name":"","type":"address","internalType":"address"}],"outputs":[{"name":"","type":"uint256","internalType":"uint256"}],"stateMutability":"view"},{"type":"function","name":"supportsInterface","inputs":[{"name":"interfaceId","type":"bytes4","internalType":"bytes4"}],"outputs":[{"name":"","type":"bool","internalType":"bool"}],"stateMutability":"view"},{"type":"function","name":"tags","inputs":[{"name":"","type":"bytes32","internalType":"bytes32"}],"outputs":[{"name":"description","type":"string","internalType":"string"},{"name":"malicious","type":"bool","internalType":"bool"}],"stateMutability":"view"},{"type":"function","name":"token","inputs":[],"outputs":[{"name":"","type":"address","internalType":"contract IERC20"}],"stateMutability":"view"},{"type":"function","name":"unstake","inputs":[{"name":"amount","type":"uint256","internalType":"uint256"}],"outputs":[],"stateMutability":"nonpayable"},{"type":"function","name":"updateLabel","inputs":[{"name":"hashedAddress","type":"bytes32","internalType":"bytes32"},{"name":"description","type":"string","internalType":"string"},{"name":"malicious","type":"bool","internalType":"bool"}],"outputs":[],"stateMutability":"nonpayable"},{"type":"event","name":"LabelUpdated","inputs":[{"name":"hashedAddress","type":"bytes32","indexed":true,"internalType":"bytes32"},{"name":"description","type":"string","indexed":false,"internalType":"string"},{"name":"malicious","type":"bool","indexed":false,"internalType":"bool"}],"anonymous":false},{"type":"event","name":"RoleAdminChanged","inputs":[{"name":"role","type":"bytes32","indexed":true,"internalType":"bytes32"},{"name":"previousAdminRole","type":"bytes32","indexed":true,"internalType":"bytes32"},{"name":"newAdminRole","type":"bytes32","indexed":true,"internalType":"bytes32"}],"anonymous":false},{"type":"event","name":"RoleGranted","inputs":[{"name":"role","type":"bytes32","indexed":true,"internalType":"bytes32"},{"name":"account","type":"address","indexed":true,"internalType":"address"},{"name":"sender","type":"address","indexed":true,"internalType":"address"}],"anonymous":false},{"type":"event","name":"RoleRevoked","inputs":[{"name":"role","type":"bytes32","indexed":true,"internalType":"bytes32"},{"name":"account","type":"address","indexed":true,"internalType":"address"},{"name":"sender","type":"address","indexed":true,"internalType":"address"}],"anonymous":false},{"type":"event","name":"Staked","inputs":[{"name":"user","type":"address","indexed":true,"internalType":"address"},{"name":"amount","type":"uint256","indexed":false,"internalType":"uint256"}],"anonymous":false},{"type":"event","name":"Unstaked","inputs":[{"name":"user","type":"address","indexed":true,"internalType":"address"},{"name":"amount","type":"uint256","indexed":false,"internalType":"uint256"}],"anonymous":false},{"type":"error","name":"AccessControlBadConfirmation","inputs":[]},{"type":"error","name":"AccessControlUnauthorizedAccount","inputs":[{"name":"account","type":"address","internalType":"address"},{"name":"neededRole","type":"bytes32","internalType":"bytes32"}]}],"bytecode":{"object":"0x608060405234801562000010575f80fd5b5060405162001e5238038062001e52833981810160405281019062000036919062000290565b6200004a5f801b83620000c660201b60201c565b506200007d7f73e573f9566d61418a34d5de3ff49360f9c51fec37f7486551670290f6285dab83620000c660201b60201c565b508060015f6101000a81548173ffffffffffffffffffffffffffffffffffffffff021916908373ffffffffffffffffffffffffffffffffffffffff1602179055505050620002d5565b5f620000d98383620001c160201b60201c565b620001b75760015f808581526020019081526020015f205f015f8473ffffffffffffffffffffffffffffffffffffffff1673ffffffffffffffffffffffffffffffffffffffff1681526020019081526020015f205f6101000a81548160ff021916908315150217905550620001536200022460201b60201c565b73ffffffffffffffffffffffffffffffffffffffff168273ffffffffffffffffffffffffffffffffffffffff16847f2f8788117e7eff1d82e926ec794901d17c78024a50270940304540a733656f0d60405160405180910390a460019050620001bb565b5f90505b92915050565b5f805f8481526020019081526020015f205f015f8373ffffffffffffffffffffffffffffffffffffffff1673ffffffffffffffffffffffffffffffffffffffff1681526020019081526020015f205f9054906101000a900460ff16905092915050565b5f33905090565b5f80fd5b5f73ffffffffffffffffffffffffffffffffffffffff82169050919050565b5f6200025a826200022f565b9050919050565b6200026c816200024e565b811462000277575f80fd5b50565b5f815190506200028a8162000261565b92915050565b5f8060408385031215620002a957620002a86200022b565b5b5f620002b8858286016200027a565b9250506020620002cb858286016200027a565b9150509250929050565b611b6f80620002e35f395ff3fe608060405234801561000f575f80fd5b5060043610610114575f3560e01c80636ead704c116100a0578063a217fddf1161006f578063a217fddf14610302578063a27a87b314610320578063a694fc3a1461033c578063d547741f14610358578063fc0c546a1461037457610114565b80636ead704c1461026757806377e15498146102855780637b0878b9146102a157806391d14854146102d257610114565b80632f2ff15d116100e75780632f2ff15d146101c457806336568abe146101e05780633c932bef146101fc57806347e63380146102185780635db7b3071461023657610114565b806301ffc9a71461011857806316934fc414610148578063248a9ca3146101785780632e17de78146101a8575b5f80fd5b610132600480360381019061012d9190611004565b610392565b60405161013f9190611049565b60405180910390f35b610162600480360381019061015d91906110bc565b61040b565b60405161016f91906110ff565b60405180910390f35b610192600480360381019061018d919061114b565b610420565b60405161019f9190611185565b60405180910390f35b6101c260048036038101906101bd91906111c8565b61043c565b005b6101de60048036038101906101d991906111f3565b61063b565b005b6101fa60048036038101906101f591906111f3565b61065d565b005b610216600480360381019061021191906110bc565b6106d8565b005b610220610712565b60405161022d9190611185565b60405180910390f35b610250600480360381019061024b919061114b565b610736565b60405161025e9291906112bb565b60405180910390f35b61026f6107e8565b60405161027c91906110ff565b60405180910390f35b61029f600480360381019061029a9190611374565b6107f5565b005b6102bb60048036038101906102b691906110bc565b610903565b6040516102c99291906112bb565b60405180910390f35b6102ec60048036038101906102e791906111f3565b610a95565b6040516102f99190611049565b60405180910390f35b61030a610af8565b6040516103179190611185565b60405180910390f35b61033a600480360381019061033591906110bc565b610afe565b005b610356600480360381019061035191906111c8565b610b38565b005b610372600480360381019061036d91906111f3565b610cb9565b005b61037c610cdb565b6040516103899190611440565b60405180910390f35b5f7f7965db0b000000000000000000000000000000000000000000000000000000007bffffffffffffffffffffffffffffffffffffffffffffffffffffffff1916827bffffffffffffffffffffffffffffffffffffffffffffffffffffffff19161480610404575061040382610d00565b5b9050919050565b6003602052805f5260405f205f915090505481565b5f805f8381526020019081526020015f20600101549050919050565b8060035f3373ffffffffffffffffffffffffffffffffffffffff1673ffffffffffffffffffffffffffffffffffffffff1681526020019081526020015f205410156104bc576040517f08c379a00000000000000000000000000000000000000000000000000000000081526004016104b3906114a3565b60405180910390fd5b8060035f3373ffffffffffffffffffffffffffffffffffffffff1673ffffffffffffffffffffffffffffffffffffffff1681526020019081526020015f205f82825461050891906114ee565b9250508190555060015f9054906101000a900473ffffffffffffffffffffffffffffffffffffffff1673ffffffffffffffffffffffffffffffffffffffff1663a9059cbb33836040518363ffffffff1660e01b815260040161056b929190611530565b6020604051808303815f875af1158015610587573d5f803e3d5ffd5b505050506040513d601f19601f820116820180604052508101906105ab919061156b565b6105ea576040517f08c379a00000000000000000000000000000000000000000000000000000000081526004016105e1906115e0565b60405180910390fd5b3373ffffffffffffffffffffffffffffffffffffffff167f0f5bb82176feb1b5e747e28471aa92156a04d9f3ab9f45f28e2d704232b93f758260405161063091906110ff565b60405180910390a250565b61064482610420565b61064d81610d69565b6106578383610d7d565b50505050565b610665610e66565b73ffffffffffffffffffffffffffffffffffffffff168173ffffffffffffffffffffffffffffffffffffffff16146106c9576040517f6697b23200000000000000000000000000000000000000000000000000000000815260040160405180910390fd5b6106d38282610e6d565b505050565b5f801b6106e481610d69565b61070e7f73e573f9566d61418a34d5de3ff49360f9c51fec37f7486551670290f6285dab83610cb9565b5050565b7f73e573f9566d61418a34d5de3ff49360f9c51fec37f7486551670290f6285dab81565b6002602052805f5260405f205f91509050805f0180546107559061162b565b80601f01602080910402602001604051908101604052809291908181526020018280546107819061162b565b80156107cc5780601f106107a3576101008083540402835291602001916107cc565b820191905f5260205f20905b8154815290600101906020018083116107af57829003601f168201915b505050505090806001015f9054906101000a900460ff16905082565b681043561a882930000081565b7f73e573f9566d61418a34d5de3ff49360f9c51fec37f7486551670290f6285dab61081f81610d69565b604051806040016040528085858080601f0160208091040260200160405190810160405280939291908181526020018383808284375f81840152601f19601f82011690508083019250505050505050815260200183151581525060025f8781526020019081526020015f205f820151815f01908161089d919061181c565b506020820151816001015f6101000a81548160ff021916908315150217905550905050847fed2570ae73fe7e38149b889321f4588d317721fec9f7eb4459cfb4bc794331338585856040516108f493929190611925565b60405180910390a25050505050565b60605f681043561a882930000060035f3373ffffffffffffffffffffffffffffffffffffffff1673ffffffffffffffffffffffffffffffffffffffff1681526020019081526020015f2054101561098f576040517f08c379a0000000000000000000000000000000000000000000000000000000008152600401610986906119c5565b60405180910390fd5b5f836040516020016109a19190611a28565b6040516020818303038152906040528051906020012090505f60025f8381526020019081526020015f206040518060400160405290815f820180546109e59061162b565b80601f0160208091040260200160405190810160405280929190818152602001828054610a119061162b565b8015610a5c5780601f10610a3357610100808354040283529160200191610a5c565b820191905f5260205f20905b815481529060010190602001808311610a3f57829003601f168201915b50505050508152602001600182015f9054906101000a900460ff1615151515815250509050805f01518160200151935093505050915091565b5f805f8481526020019081526020015f205f015f8373ffffffffffffffffffffffffffffffffffffffff1673ffffffffffffffffffffffffffffffffffffffff1681526020019081526020015f205f9054906101000a900460ff16905092915050565b5f801b81565b5f801b610b0a81610d69565b610b347f73e573f9566d61418a34d5de3ff49360f9c51fec37f7486551670290f6285dab8361063b565b5050565b60015f9054906101000a900473ffffffffffffffffffffffffffffffffffffffff1673ffffffffffffffffffffffffffffffffffffffff166323b872dd3330846040518463ffffffff1660e01b8152600401610b9693929190611a42565b6020604051808303815f875af1158015610bb2573d5f803e3d5ffd5b505050506040513d601f19601f82011682018060405250810190610bd6919061156b565b610c15576040517f08c379a0000000000000000000000000000000000000000000000000000000008152600401610c0c90611ac1565b60405180910390fd5b8060035f3373ffffffffffffffffffffffffffffffffffffffff1673ffffffffffffffffffffffffffffffffffffffff1681526020019081526020015f205f828254610c619190611adf565b925050819055503373ffffffffffffffffffffffffffffffffffffffff167f9e71bc8eea02a63969f509818f2dafb9254532904319f9dbda79b67bd34a5f3d82604051610cae91906110ff565b60405180910390a250565b610cc282610420565b610ccb81610d69565b610cd58383610e6d565b50505050565b60015f9054906101000a900473ffffffffffffffffffffffffffffffffffffffff1681565b5f7f01ffc9a7000000000000000000000000000000000000000000000000000000007bffffffffffffffffffffffffffffffffffffffffffffffffffffffff1916827bffffffffffffffffffffffffffffffffffffffffffffffffffffffff1916149050919050565b610d7a81610d75610e66565b610f56565b50565b5f610d888383610a95565b610e5c5760015f808581526020019081526020015f205f015f8473ffffffffffffffffffffffffffffffffffffffff1673ffffffffffffffffffffffffffffffffffffffff1681526020019081526020015f205f6101000a81548160ff021916908315150217905550610df9610e66565b73ffffffffffffffffffffffffffffffffffffffff168273ffffffffffffffffffffffffffffffffffffffff16847f2f8788117e7eff1d82e926ec794901d17c78024a50270940304540a733656f0d60405160405180910390a460019050610e60565b5f90505b92915050565b5f33905090565b5f610e788383610a95565b15610f4c575f805f8581526020019081526020015f205f015f8473ffffffffffffffffffffffffffffffffffffffff1673ffffffffffffffffffffffffffffffffffffffff1681526020019081526020015f205f6101000a81548160ff021916908315150217905550610ee9610e66565b73ffffffffffffffffffffffffffffffffffffffff168273ffffffffffffffffffffffffffffffffffffffff16847ff6391f5c32d9c69d2a47ea670b442974b53935d1edc7fd64eb21e047a839171b60405160405180910390a460019050610f50565b5f90505b92915050565b610f608282610a95565b610fa35780826040517fe2517d3f000000000000000000000000000000000000000000000000000000008152600401610f9a929190611b12565b60405180910390fd5b5050565b5f80fd5b5f80fd5b5f7fffffffff0000000000000000000000000000000000000000000000000000000082169050919050565b610fe381610faf565b8114610fed575f80fd5b50565b5f81359050610ffe81610fda565b92915050565b5f6020828403121561101957611018610fa7565b5b5f61102684828501610ff0565b91505092915050565b5f8115159050919050565b6110438161102f565b82525050565b5f60208201905061105c5f83018461103a565b92915050565b5f73ffffffffffffffffffffffffffffffffffffffff82169050919050565b5f61108b82611062565b9050919050565b61109b81611081565b81146110a5575f80fd5b50565b5f813590506110b681611092565b92915050565b5f602082840312156110d1576110d0610fa7565b5b5f6110de848285016110a8565b91505092915050565b5f819050919050565b6110f9816110e7565b82525050565b5f6020820190506111125f8301846110f0565b92915050565b5f819050919050565b61112a81611118565b8114611134575f80fd5b50565b5f8135905061114581611121565b92915050565b5f602082840312156111605761115f610fa7565b5b5f61116d84828501611137565b91505092915050565b61117f81611118565b82525050565b5f6020820190506111985f830184611176565b92915050565b6111a7816110e7565b81146111b1575f80fd5b50565b5f813590506111c28161119e565b92915050565b5f602082840312156111dd576111dc610fa7565b5b5f6111ea848285016111b4565b91505092915050565b5f806040838503121561120957611208610fa7565b5b5f61121685828601611137565b9250506020611227858286016110a8565b9150509250929050565b5f81519050919050565b5f82825260208201905092915050565b5f5b8381101561126857808201518184015260208101905061124d565b5f8484015250505050565b5f601f19601f8301169050919050565b5f61128d82611231565b611297818561123b565b93506112a781856020860161124b565b6112b081611273565b840191505092915050565b5f6040820190508181035f8301526112d38185611283565b90506112e2602083018461103a565b9392505050565b5f80fd5b5f80fd5b5f80fd5b5f8083601f84011261130a576113096112e9565b5b8235905067ffffffffffffffff811115611327576113266112ed565b5b602083019150836001820283011115611343576113426112f1565b5b9250929050565b6113538161102f565b811461135d575f80fd5b50565b5f8135905061136e8161134a565b92915050565b5f805f806060858703121561138c5761138b610fa7565b5b5f61139987828801611137565b945050602085013567ffffffffffffffff8111156113ba576113b9610fab565b5b6113c6878288016112f5565b935093505060406113d987828801611360565b91505092959194509250565b5f819050919050565b5f6114086114036113fe84611062565b6113e5565b611062565b9050919050565b5f611419826113ee565b9050919050565b5f61142a8261140f565b9050919050565b61143a81611420565b82525050565b5f6020820190506114535f830184611431565b92915050565b7f496e73756666696369656e74207374616b6500000000000000000000000000005f82015250565b5f61148d60128361123b565b915061149882611459565b602082019050919050565b5f6020820190508181035f8301526114ba81611481565b9050919050565b7f4e487b71000000000000000000000000000000000000000000000000000000005f52601160045260245ffd5b5f6114f8826110e7565b9150611503836110e7565b925082820390508181111561151b5761151a6114c1565b5b92915050565b61152a81611081565b82525050565b5f6040820190506115435f830185611521565b61155060208301846110f0565b9392505050565b5f815190506115658161134a565b92915050565b5f602082840312156115805761157f610fa7565b5b5f61158d84828501611557565b91505092915050565b7f556e7374616b65206661696c65640000000000000000000000000000000000005f82015250565b5f6115ca600e8361123b565b91506115d582611596565b602082019050919050565b5f6020820190508181035f8301526115f7816115be565b9050919050565b7f4e487b71000000000000000000000000000000000000000000000000000000005f52602260045260245ffd5b5f600282049050600182168061164257607f821691505b602082108103611655576116546115fe565b5b50919050565b7f4e487b71000000000000000000000000000000000000000000000000000000005f52604160045260245ffd5b5f819050815f5260205f209050919050565b5f6020601f8301049050919050565b5f82821b905092915050565b5f600883026116e47fffffffffffffffffffffffffffffffffffffffffffffffffffffffffffffffff826116a9565b6116ee86836116a9565b95508019841693508086168417925050509392505050565b5f61172061171b611716846110e7565b6113e5565b6110e7565b9050919050565b5f819050919050565b61173983611706565b61174d61174582611727565b8484546116b5565b825550505050565b5f90565b611761611755565b61176c818484611730565b505050565b5b8181101561178f576117845f82611759565b600181019050611772565b5050565b601f8211156117d4576117a581611688565b6117ae8461169a565b810160208510156117bd578190505b6117d16117c98561169a565b830182611771565b50505b505050565b5f82821c905092915050565b5f6117f45f19846008026117d9565b1980831691505092915050565b5f61180c83836117e5565b9150826002028217905092915050565b61182582611231565b67ffffffffffffffff81111561183e5761183d61165b565b5b611848825461162b565b611853828285611793565b5f60209050601f831160018114611884575f8415611872578287015190505b61187c8582611801565b8655506118e3565b601f19841661189286611688565b5f5b828110156118b957848901518255600182019150602085019450602081019050611894565b868310156118d657848901516118d2601f8916826117e5565b8355505b6001600288020188555050505b505050505050565b828183375f83830152505050565b5f611904838561123b565b93506119118385846118eb565b61191a83611273565b840190509392505050565b5f6040820190508181035f83015261193e8185876118f9565b905061194d602083018461103a565b949350505050565b7f496e73756666696369656e74207374616b6520746f20616363657373206461745f8201527f6100000000000000000000000000000000000000000000000000000000000000602082015250565b5f6119af60218361123b565b91506119ba82611955565b604082019050919050565b5f6020820190508181035f8301526119dc816119a3565b9050919050565b5f8160601b9050919050565b5f6119f9826119e3565b9050919050565b5f611a0a826119ef565b9050919050565b611a22611a1d82611081565b611a00565b82525050565b5f611a338284611a11565b60148201915081905092915050565b5f606082019050611a555f830186611521565b611a626020830185611521565b611a6f60408301846110f0565b949350505050565b7f5374616b65206661696c656400000000000000000000000000000000000000005f82015250565b5f611aab600c8361123b565b9150611ab682611a77565b602082019050919050565b5f6020820190508181035f830152611ad881611a9f565b9050919050565b5f611ae9826110e7565b9150611af4836110e7565b9250828201905080821115611b0c57611b0b6114c1565b5b92915050565b5f604082019050611b255f830185611521565b611b326020830184611176565b939250505056fea26469706673582212208b7fafd0bee9ddbc55faec7316d81bf1333fa3819af1d614f7bd582dbfdaa90064736f6c63430008180033","linkReferences":{}},"methodIdentifiers":{"DEFAULT_ADMIN_ROLE()":"a217fddf","MIN_STAKE_REQUIREMENT()":"6ead704c","UPDATER_ROLE()":"47e63380","getRoleAdmin(bytes32)":"248a9ca3","getTagData(address)":"7b0878b9","grantRole(bytes32,address)":"2f2ff15d","grantUpdater(address)":"a27a87b3","hasRole(bytes32,address)":"91d14854","renounceRole(bytes32,address)":"36568abe","revokeRole(bytes32,address)":"d547741f","revokeUpdater(address)":"3c932bef","stake(uint256)":"a694fc3a","stakes(address)":"16934fc4","supportsInterface(bytes4)":"01ffc9a7","tags(bytes32)":"5db7b307","token()":"fc0c546a","unstake(uint256)":"2e17de78","updateLabel(bytes32,string,bool)":"77e15498"},"id":32}