{"abi":[{"type":"constructor","inputs":[{"name":"_token","type":"address","internalType":"address"},{"name":"_tagStorage","type":"address","internalType":"address"},{"name":"initialOwner","type":"address","internalType":"address"}],"stateMutability":"nonpayable"},{"type":"function","name":"MIN_VOTE_COUNT","inputs":[],"outputs":[{"name":"","type":"uint256","internalType":"uint256"}],"stateMutability":"view"},{"type":"function","name":"SLASH_FAILED_PROPOSAL","inputs":[],"outputs":[{"name":"","type":"uint256","internalType":"uint256"}],"stateMutability":"view"},{"type":"function","name":"SLASH_UNREVEALED","inputs":[],"outputs":[{"name":"","type":"uint256","internalType":"uint256"}],"stateMutability":"view"},{"type":"function","name":"STAKE_TO_PROPOSE","inputs":[],"outputs":[{"name":"","type":"uint256","internalType":"uint256"}],"stateMutability":"view"},{"type":"function","name":"STAKE_TO_VOTE","inputs":[],"outputs":[{"name":"","type":"uint256","internalType":"uint256"}],"stateMutability":"view"},{"type":"function","name":"claimReward","inputs":[{"name":"proposalId","type":"string","internalType":"string"}],"outputs":[],"stateMutability":"nonpayable"},{"type":"function","name":"commitVote","inputs":[{"name":"proposalId","type":"string","internalType":"string"},{"name":"voteHash","type":"bytes32","internalType":"bytes32"}],"outputs":[],"stateMutability":"nonpayable"},{"type":"function","name":"createProposal","inputs":[{"name":"proposalId","type":"string","internalType":"string"},{"name":"target","type":"address","internalType":"address"},{"name":"malicious","type":"bool","internalType":"bool"},{"name":"description","type":"string","internalType":"string"},{"name":"deadline","type":"uint256","internalType":"uint256"}],"outputs":[],"stateMutability":"nonpayable"},{"type":"function","name":"finalize","inputs":[{"name":"proposalId","type":"string","internalType":"string"},{"name":"voterList","type":"address[]","internalType":"address[]"},{"name":"rewardList","type":"uint256[]","internalType":"uint256[]"}],"outputs":[],"stateMutability":"nonpayable"},{"type":"function","name":"getProposalVoters","inputs":[{"name":"proposalId","type":"string","internalType":"string"}],"outputs":[{"name":"","type":"address[]","internalType":"address[]"}],"stateMutability":"view"},{"type":"function","name":"owner","inputs":[],"outputs":[{"name":"","type":"address","internalType":"address"}],"stateMutability":"view"},{"type":"function","name":"proposals","inputs":[{"name":"","type":"string","internalType":"string"}],"outputs":[{"name":"target","type":"address","internalType":"address"},{"name":"malicious","type":"bool","internalType":"bool"},{"name":"description","type":"string","internalType":"string"},{"name":"proposer","type":"address","internalType":"address"},{"name":"deadline","type":"uint256","internalType":"uint256"},{"name":"phase","type":"uint8","internalType":"enum TrustTagVoting.Phase"},{"name":"totalStake","type":"uint256","internalType":"uint256"},{"name":"finalized","type":"bool","internalType":"bool"},{"name":"winningLabel","type":"bool","internalType":"bool"}],"stateMutability":"view"},{"type":"function","name":"renounceOwnership","inputs":[],"outputs":[],"stateMutability":"nonpayable"},{"type":"function","name":"revealVote","inputs":[{"name":"proposalId","type":"string","internalType":"string"},{"name":"voter","type":"address","internalType":"address"},{"name":"vote","type":"bool","internalType":"bool"},{"name":"prediction","type":"uint8","internalType":"uint8"},{"name":"salt","type":"bytes32","internalType":"bytes32"}],"outputs":[],"stateMutability":"nonpayable"},{"type":"function","name":"stake","inputs":[{"name":"amount","type":"uint256","internalType":"uint256"}],"outputs":[],"stateMutability":"nonpayable"},{"type":"function","name":"stakes","inputs":[{"name":"","type":"address","internalType":"address"}],"outputs":[{"name":"","type":"uint256","internalType":"uint256"}],"stateMutability":"view"},{"type":"function","name":"startRevealPhase","inputs":[{"name":"proposalId","type":"string","internalType":"string"},{"name":"deadline","type":"uint256","internalType":"uint256"}],"outputs":[],"stateMutability":"nonpayable"},{"type":"function","name":"tagStorage","inputs":[],"outputs":[{"name":"","type":"address","internalType":"contract ITagStorage"}],"stateMutability":"view"},{"type":"function","name":"token","inputs":[],"outputs":[{"name":"","type":"address","internalType":"contract IERC20"}],"stateMutability":"view"},{"type":"function","name":"transferOwnership","inputs":[{"name":"newOwner","type":"address","internalType":"address"}],"outputs":[],"stateMutability":"nonpayable"},{"type":"function","name":"unstake","inputs":[{"name":"amount","type":"uint256","internalType":"uint256"}],"outputs":[],"stateMutability":"nonpayable"},{"type":"event","name":"OwnershipTransferred","inputs":[{"name":"previousOwner","type":"address","indexed":true,"internalType":"address"},{"name":"newOwner","type":"address","indexed":true,"internalType":"address"}],"anonymous":false},{"type":"event","name":"ProposalCreated","inputs":[{"name":"proposalId","type":"string","indexed":false,"internalType":"string"},{"name":"description","type":"string","indexed":false,"internalType":"string"}],"anonymous":false},{"type":"event","name":"ProposalFinalized","inputs":[{"name":"proposalId","type":"string","indexed":false,"internalType":"string"},{"name":"label","type":"bool","indexed":false,"internalType":"bool"}],"anonymous":false},{"type":"event","name":"RewardClaimed","inputs":[{"name":"proposalId","type":"string","indexed":false,"internalType":"string"},{"name":"voter","type":"address","indexed":false,"internalType":"address"},{"name":"amount","type":"uint256","indexed":false,"internalType":"uint256"}],"anonymous":false},{"type":"event","name":"Staked","inputs":[{"name":"user","type":"address","indexed":true,"internalType":"address"},{"name":"amount","type":"uint256","indexed":false,"internalType":"uint256"}],"anonymous":false},{"type":"event","name":"Unstaked","inputs":[{"name":"user","type":"address","indexed":true,"internalType":"address"},{"name":"amount","type":"uint256","indexed":false,"internalType":"uint256"}],"anonymous":false},{"type":"event","name":"VoteCommitted","inputs":[{"name":"proposalId","type":"string","indexed":false,"internalType":"string"},{"name":"voter","type":"address","indexed":false,"internalType":"address"}],"anonymous":false},{"type":"event","name":"VoteRevealed","inputs":[{"name":"proposalId","type":"string","indexed":false,"internalType":"string"},{"name":"voter","type":"address","indexed":false,"internalType":"address"},{"name":"vote","type":"bool","indexed":false,"internalType":"bool"},{"name":"prediction","type":"uint8","indexed":false,"internalType":"uint8"}],"anonymous":false},{"type":"error","name":"OwnableInvalidOwner","inputs":[{"name":"owner","type":"address","internalType":"address"}]},{"type":"error","name":"OwnableUnauthorizedAccount","inputs":[{"name":"account","type":"address","internalType":"address"}]}],"bytecode":{"object":"0x608060405234801562000010575f80fd5b50604051620041ec380380620041ec83398181016040528101906200003691906200026b565b805f73ffffffffffffffffffffffffffffffffffffffff168173ffffffffffffffffffffffffffffffffffffffff1603620000aa575f6040517f1e4fbdf7000000000000000000000000000000000000000000000000000000008152600401620000a19190620002d5565b60405180910390fd5b620000bb816200014560201b60201c565b508260015f6101000a81548173ffffffffffffffffffffffffffffffffffffffff021916908373ffffffffffffffffffffffffffffffffffffffff1602179055508160025f6101000a81548173ffffffffffffffffffffffffffffffffffffffff021916908373ffffffffffffffffffffffffffffffffffffffff160217905550505050620002f0565b5f805f9054906101000a900473ffffffffffffffffffffffffffffffffffffffff169050815f806101000a81548173ffffffffffffffffffffffffffffffffffffffff021916908373ffffffffffffffffffffffffffffffffffffffff1602179055508173ffffffffffffffffffffffffffffffffffffffff168173ffffffffffffffffffffffffffffffffffffffff167f8be0079c531659141344cd1fd0a4f28419497f9722a3daafe3b4186f6b6457e060405160405180910390a35050565b5f80fd5b5f73ffffffffffffffffffffffffffffffffffffffff82169050919050565b5f62000235826200020a565b9050919050565b620002478162000229565b811462000252575f80fd5b50565b5f8151905062000265816200023c565b92915050565b5f805f6060848603121562000285576200028462000206565b5b5f620002948682870162000255565b9350506020620002a78682870162000255565b9250506040620002ba8682870162000255565b9150509250925092565b620002cf8162000229565b82525050565b5f602082019050620002ea5f830184620002c4565b92915050565b613eee80620002fe5f395ff3fe608060405234801561000f575f80fd5b5060043610610135575f3560e01c806391e832bb116100b6578063c28dac381161007a578063c28dac38146102fd578063c41bcc341461031b578063dd77ef1614610339578063f2fde38b14610355578063fc0c546a14610371578063ffa0d2a41461038f57610135565b806391e832bb1461025b5780639edf4ac4146102775780639fe10fa114610295578063a694fc3a146102c5578063bb8c9797146102e157610135565b8063715018a6116100fd578063715018a6146101dd57806383366889146101e757806387c9baf914610203578063887c76401461021f5780638da5cb5b1461023d57610135565b806316934fc41461013957806319ec4384146101695780632e17de781461018757806356d8f6fe146101a35780635e7f0c97146101bf575b5f80fd5b610153600480360381019061014e91906123a1565b6103c7565b60405161016091906123e4565b60405180910390f35b6101716103dc565b60405161017e9190612458565b60405180910390f35b6101a1600480360381019061019c919061249b565b610401565b005b6101bd60048036038101906101b8919061255a565b610600565b005b6101c7610a76565b6040516101d491906123e4565b60405180910390f35b6101e5610a83565b005b61020160048036038101906101fc9190612622565b610a96565b005b61021d600480360381019061021891906126b8565b610d52565b005b610227610fcf565b60405161023491906123e4565b60405180910390f35b610245610fdc565b6040516102529190612724565b60405180910390f35b6102756004803603810190610270919061273d565b611003565b005b61027f611238565b60405161028c91906123e4565b60405180910390f35b6102af60048036038101906102aa91906127f4565b611244565b6040516102bc91906128f6565b60405180910390f35b6102df60048036038101906102da919061249b565b6112f3565b005b6102fb60048036038101906102f691906127f4565b611474565b005b610305611752565b60405161031291906123e4565b60405180910390f35b61032361175f565b60405161033091906123e4565b60405180910390f35b610353600480360381019061034e91906129c0565b611764565b005b61036f600480360381019061036a91906123a1565b611fe7565b005b61037961206b565b6040516103869190612a90565b60405180910390f35b6103a960048036038101906103a49190612be1565b612090565b6040516103be99989796959493929190612d24565b60405180910390f35b6004602052805f5260405f205f915090505481565b60025f9054906101000a900473ffffffffffffffffffffffffffffffffffffffff1681565b8060045f3373ffffffffffffffffffffffffffffffffffffffff1673ffffffffffffffffffffffffffffffffffffffff1681526020019081526020015f20541015610481576040517f08c379a000000000000000000000000000000000000000000000000000000000815260040161047890612e00565b60405180910390fd5b8060045f3373ffffffffffffffffffffffffffffffffffffffff1673ffffffffffffffffffffffffffffffffffffffff1681526020019081526020015f205f8282546104cd9190612e4b565b9250508190555060015f9054906101000a900473ffffffffffffffffffffffffffffffffffffffff1673ffffffffffffffffffffffffffffffffffffffff1663a9059cbb33836040518363ffffffff1660e01b8152600401610530929190612e7e565b6020604051808303815f875af115801561054c573d5f803e3d5ffd5b505050506040513d601f19601f820116820180604052508101906105709190612eb9565b6105af576040517f08c379a00000000000000000000000000000000000000000000000000000000081526004016105a690612f2e565b60405180910390fd5b3373ffffffffffffffffffffffffffffffffffffffff167f0f5bb82176feb1b5e747e28471aa92156a04d9f3ab9f45f28e2d704232b93f75826040516105f591906123e4565b60405180910390a250565b5f60038484604051610613929190612f7a565b90815260200160405180910390209050806003015442111561066a576040517f08c379a000000000000000000000000000000000000000000000000000000000815260040161066190612fdc565b60405180910390fd5b5f600281111561067d5761067c612cb1565b5b816004015f9054906101000a900460ff1660028111156106a05761069f612cb1565b5b146106e0576040517f08c379a00000000000000000000000000000000000000000000000000000000081526004016106d790613044565b60405180910390fd5b6801158e460913d0000060045f3373ffffffffffffffffffffffffffffffffffffffff1673ffffffffffffffffffffffffffffffffffffffff1681526020019081526020015f20541015610769576040517f08c379a0000000000000000000000000000000000000000000000000000000008152600401610760906130ac565b60405180910390fd5b5f801b816005015f3373ffffffffffffffffffffffffffffffffffffffff1673ffffffffffffffffffffffffffffffffffffffff1681526020019081526020015f205f0154146107ee576040517f08c379a00000000000000000000000000000000000000000000000000000000081526004016107e590613114565b60405180910390fd5b5f801b8203610832576040517f08c379a00000000000000000000000000000000000000000000000000000000081526004016108299061317c565b60405180910390fd5b6040518060e001604052808381526020015f151581526020015f151581526020015f60ff1681526020016801158e460913d0000081526020015f81526020015f1515815250816005015f3373ffffffffffffffffffffffffffffffffffffffff1673ffffffffffffffffffffffffffffffffffffffff1681526020019081526020015f205f820151815f01556020820151816001015f6101000a81548160ff02191690831515021790555060408201518160010160016101000a81548160ff02191690831515021790555060608201518160010160026101000a81548160ff021916908360ff1602179055506080820151816002015560a0820151816003015560c0820151816004015f6101000a81548160ff0219169083151502179055509050508060070133908060018154018082558091505060019003905f5260205f20015f9091909190916101000a81548173ffffffffffffffffffffffffffffffffffffffff021916908373ffffffffffffffffffffffffffffffffffffffff1602179055506801158e460913d00000816008015f8282546109d2919061319a565b925050819055506801158e460913d0000060045f3373ffffffffffffffffffffffffffffffffffffffff1673ffffffffffffffffffffffffffffffffffffffff1681526020019081526020015f205f828254610a2e9190612e4b565b925050819055507f50243476cf032fae798fcf62289573b1a73fe13390986e4368c6cd4a21944c36848433604051610a68939291906131f9565b60405180910390a150505050565b6801158e460913d0000081565b610a8b6121e7565b610a945f61226e565b565b610a9e6121e7565b5f60038787604051610ab1929190612f7a565b9081526020016040518091039020905060016002811115610ad557610ad4612cb1565b5b816004015f9054906101000a900460ff166002811115610af857610af7612cb1565b5b14610b38576040517f08c379a0000000000000000000000000000000000000000000000000000000008152600401610b2f90613273565b60405180910390fd5b5f816005015f8773ffffffffffffffffffffffffffffffffffffffff1673ffffffffffffffffffffffffffffffffffffffff1681526020019081526020015f2090505f801b815f015403610bc1576040517f08c379a0000000000000000000000000000000000000000000000000000000008152600401610bb8906132db565b60405180910390fd5b806001015f9054906101000a900460ff1615610c12576040517f08c379a0000000000000000000000000000000000000000000000000000000008152600401610c0990613343565b60405180910390fd5b5f858585604051602001610c28939291906133dd565b604051602081830303815290604052805190602001209050815f01548114610c85576040517f08c379a0000000000000000000000000000000000000000000000000000000008152600401610c7c90613463565b60405180910390fd5b6001826001015f6101000a81548160ff021916908315150217905550858260010160016101000a81548160ff021916908315150217905550848260010160026101000a81548160ff021916908360ff1602179055506001836006015f881515151581526020019081526020015f205f828254610d01919061319a565b925050819055507f58107a547261beb01eeef288838b698d4638f418bb3ce6a720ee0f197b2d28308989898989604051610d3f959493929190613490565b60405180910390a1505050505050505050565b610d5a6121e7565b5f60038484604051610d6d929190612f7a565b908152602001604051809103902090505f6002811115610d9057610d8f612cb1565b5b816004015f9054906101000a900460ff166002811115610db357610db2612cb1565b5b14610df3576040517f08c379a0000000000000000000000000000000000000000000000000000000008152600401610dea90613044565b60405180910390fd5b8060030154421015610e3a576040517f08c379a0000000000000000000000000000000000000000000000000000000008152600401610e3190613526565b60405180910390fd5b600381600701805490501015610f93575f5b8160070180549050811015610f44575f826007018281548110610e7257610e71613544565b5b905f5260205f20015f9054906101000a900473ffffffffffffffffffffffffffffffffffffffff1690505f836005015f8373ffffffffffffffffffffffffffffffffffffffff1673ffffffffffffffffffffffffffffffffffffffff1681526020019081526020015f209050806002015460045f8473ffffffffffffffffffffffffffffffffffffffff1673ffffffffffffffffffffffffffffffffffffffff1681526020019081526020015f205f828254610f2e919061319a565b9250508190555050508080600101915050610e4c565b506002816004015f6101000a81548160ff02191690836002811115610f6c57610f6b612cb1565b5b02179055506001816009015f6101000a81548160ff02191690831515021790555050610fca565b6001816004015f6101000a81548160ff02191690836002811115610fba57610fb9612cb1565b5b0217905550818160030181905550505b505050565b681043561a882930000081565b5f805f9054906101000a900473ffffffffffffffffffffffffffffffffffffffff16905090565b681043561a882930000060045f3373ffffffffffffffffffffffffffffffffffffffff1673ffffffffffffffffffffffffffffffffffffffff1681526020019081526020015f2054101561108c576040517f08c379a0000000000000000000000000000000000000000000000000000000008152600401611083906135bb565b60405180910390fd5b5f6003888860405161109f929190612f7a565b9081526020016040518091039020905083838260010191826110c29291906137d4565b508181600301819055505f816004015f6101000a81548160ff021916908360028111156110f2576110f1612cb1565b5b021790555033816002015f6101000a81548173ffffffffffffffffffffffffffffffffffffffff021916908373ffffffffffffffffffffffffffffffffffffffff16021790555085815f015f6101000a81548173ffffffffffffffffffffffffffffffffffffffff021916908373ffffffffffffffffffffffffffffffffffffffff16021790555084815f0160146101000a81548160ff021916908315150217905550681043561a882930000060045f3373ffffffffffffffffffffffffffffffffffffffff1673ffffffffffffffffffffffffffffffffffffffff1681526020019081526020015f205f8282546111ea9190612e4b565b925050819055507f1a51752aa6f33b6ca737e2496a349f112944c0bb58bd54d60d6cf2b57c681b6c8888868660405161122694939291906138a1565b60405180910390a15050505050505050565b678ac7230489e8000081565b606060038383604051611258929190612f7a565b90815260200160405180910390206007018054806020026020016040519081016040528092919081815260200182805480156112e657602002820191905f5260205f20905b815f9054906101000a900473ffffffffffffffffffffffffffffffffffffffff1673ffffffffffffffffffffffffffffffffffffffff168152602001906001019080831161129d575b5050505050905092915050565b60015f9054906101000a900473ffffffffffffffffffffffffffffffffffffffff1673ffffffffffffffffffffffffffffffffffffffff166323b872dd3330846040518463ffffffff1660e01b8152600401611351939291906138da565b6020604051808303815f875af115801561136d573d5f803e3d5ffd5b505050506040513d601f19601f820116820180604052508101906113919190612eb9565b6113d0576040517f08c379a00000000000000000000000000000000000000000000000000000000081526004016113c790613959565b60405180910390fd5b8060045f3373ffffffffffffffffffffffffffffffffffffffff1673ffffffffffffffffffffffffffffffffffffffff1681526020019081526020015f205f82825461141c919061319a565b925050819055503373ffffffffffffffffffffffffffffffffffffffff167f9e71bc8eea02a63969f509818f2dafb9254532904319f9dbda79b67bd34a5f3d8260405161146991906123e4565b60405180910390a250565b5f60038383604051611487929190612f7a565b908152602001604051809103902090505f816005015f3373ffffffffffffffffffffffffffffffffffffffff1673ffffffffffffffffffffffffffffffffffffffff1681526020019081526020015f209050816009015f9054906101000a900460ff16611529576040517f08c379a0000000000000000000000000000000000000000000000000000000008152600401611520906139c1565b60405180910390fd5b806001015f9054906101000a900460ff16611579576040517f08c379a000000000000000000000000000000000000000000000000000000000815260040161157090613a29565b60405180910390fd5b806004015f9054906101000a900460ff16156115ca576040517f08c379a00000000000000000000000000000000000000000000000000000000081526004016115c190613a91565b60405180910390fd5b5f816003015411611610576040517f08c379a000000000000000000000000000000000000000000000000000000000815260040161160790613af9565b60405180910390fd5b6001816004015f6101000a81548160ff02191690831515021790555060015f9054906101000a900473ffffffffffffffffffffffffffffffffffffffff1673ffffffffffffffffffffffffffffffffffffffff1663a9059cbb3383600301546040518363ffffffff1660e01b815260040161168c929190612e7e565b6020604051808303815f875af11580156116a8573d5f803e3d5ffd5b505050506040513d601f19601f820116820180604052508101906116cc9190612eb9565b61170b576040517f08c379a000000000000000000000000000000000000000000000000000000000815260040161170290613b61565b60405180910390fd5b7f6e5596fe4f25c687a26b2421b8816d678eb3615ab1a5a91fb9cb43ed8b92751d84843384600301546040516117449493929190613b7f565b60405180910390a150505050565b681043561a882930000081565b600381565b61176c6121e7565b5f6003878760405161177f929190612f7a565b90815260200160405180910390209050600160028111156117a3576117a2612cb1565b5b816004015f9054906101000a900460ff1660028111156117c6576117c5612cb1565b5b14611806576040517f08c379a00000000000000000000000000000000000000000000000000000000081526004016117fd90613273565b60405180910390fd5b806009015f9054906101000a900460ff1615611857576040517f08c379a000000000000000000000000000000000000000000000000000000000815260040161184e90613c07565b60405180910390fd5b806003015442101561189e576040517f08c379a000000000000000000000000000000000000000000000000000000000815260040161189590613c6f565b60405180910390fd5b8282905085859050146118e6576040517f08c379a00000000000000000000000000000000000000000000000000000000081526004016118dd90613cd7565b60405180910390fd5b80600701805490508585905014611932576040517f08c379a000000000000000000000000000000000000000000000000000000000815260040161192990613d3f565b60405180910390fd5b6003858590501015611a76575f5b85859050811015611a27575f86868381811061195f5761195e613544565b5b905060200201602081019061197491906123a1565b90505f836005015f8373ffffffffffffffffffffffffffffffffffffffff1673ffffffffffffffffffffffffffffffffffffffff1681526020019081526020015f209050806002015460045f8473ffffffffffffffffffffffffffffffffffffffff1673ffffffffffffffffffffffffffffffffffffffff1681526020019081526020015f205f828254611a08919061319a565b925050819055505f816003018190555050508080600101915050611940565b506002816004015f6101000a81548160ff02191690836002811115611a4f57611a4e612cb1565b5b02179055506001816009015f6101000a81548160ff02191690831515021790555050611fdf565b5f816006015f801515151581526020019081526020015f2054826006015f60011515151581526020019081526020015f205410159050808260090160016101000a81548160ff0219169083151502179055506002826004015f6101000a81548160ff02191690836002811115611aef57611aee612cb1565b5b02179055506001826009015f6101000a81548160ff02191690831515021790555080825f0160146101000a81548160ff0219169083151502179055505f5b86869050811015611df457826007018181548110611b4e57611b4d613544565b5b905f5260205f20015f9054906101000a900473ffffffffffffffffffffffffffffffffffffffff1673ffffffffffffffffffffffffffffffffffffffff16878783818110611b9f57611b9e613544565b5b9050602002016020810190611bb491906123a1565b73ffffffffffffffffffffffffffffffffffffffff1614611c0a576040517f08c379a0000000000000000000000000000000000000000000000000000000008152600401611c0190613d3f565b60405180910390fd5b5f878783818110611c1e57611c1d613544565b5b9050602002016020810190611c3391906123a1565b90505f868684818110611c4957611c48613544565b5b9050602002013590505f856005015f8473ffffffffffffffffffffffffffffffffffffffff1673ffffffffffffffffffffffffffffffffffffffff1681526020019081526020015f209050806001015f9054906101000a900460ff16611d5857678ac7230489e80000816002015460045f8673ffffffffffffffffffffffffffffffffffffffff1673ffffffffffffffffffffffffffffffffffffffff1681526020019081526020015f2054611cff919061319a565b611d099190612e4b565b60045f8573ffffffffffffffffffffffffffffffffffffffff1673ffffffffffffffffffffffffffffffffffffffff1681526020019081526020015f20819055505f8160030181905550611de4565b8415158160010160019054906101000a900460ff16151514611d82575f8160030181905550611de3565b818160030181905550806002015460045f8573ffffffffffffffffffffffffffffffffffffffff1673ffffffffffffffffffffffffffffffffffffffff1681526020019081526020015f205f828254611ddb919061319a565b925050819055505b5b5050508080600101915050611b2d565b505f826006015f60011515151581526020019081526020015f2054148015611e3257505f826006015f801515151581526020019081526020015f2054145b611eb657681043561a882930000060045f846002015f9054906101000a900473ffffffffffffffffffffffffffffffffffffffff1673ffffffffffffffffffffffffffffffffffffffff1673ffffffffffffffffffffffffffffffffffffffff1681526020019081526020015f205f828254611eae919061319a565b925050819055505b5f825f015f9054906101000a900473ffffffffffffffffffffffffffffffffffffffff16604051602001611eea9190613da2565b60405160208183030381529060405280519060200120905060025f9054906101000a900473ffffffffffffffffffffffffffffffffffffffff1673ffffffffffffffffffffffffffffffffffffffff166377e154988285600101865f0160149054906101000a900460ff166040518463ffffffff1660e01b8152600401611f7393929190613e4c565b5f604051808303815f87803b158015611f8a575f80fd5b505af1158015611f9c573d5f803e3d5ffd5b505050507f02e0b4ba358513ad0b594703ae447c8bb0a707cec1100e5615ce4b9236b90fe3898984604051611fd393929190613e88565b60405180910390a15050505b505050505050565b611fef6121e7565b5f73ffffffffffffffffffffffffffffffffffffffff168173ffffffffffffffffffffffffffffffffffffffff160361205f575f6040517f1e4fbdf70000000000000000000000000000000000000000000000000000000081526004016120569190612724565b60405180910390fd5b6120688161226e565b50565b60015f9054906101000a900473ffffffffffffffffffffffffffffffffffffffff1681565b6003818051602081018201805184825260208301602085012081835280955050505050505f91509050805f015f9054906101000a900473ffffffffffffffffffffffffffffffffffffffff1690805f0160149054906101000a900460ff16908060010180546120fe90613610565b80601f016020809104026020016040519081016040528092919081815260200182805461212a90613610565b80156121755780601f1061214c57610100808354040283529160200191612175565b820191905f5260205f20905b81548152906001019060200180831161215857829003601f168201915b505050505090806002015f9054906101000a900473ffffffffffffffffffffffffffffffffffffffff1690806003015490806004015f9054906101000a900460ff1690806008015490806009015f9054906101000a900460ff16908060090160019054906101000a900460ff16905089565b6121ef61232f565b73ffffffffffffffffffffffffffffffffffffffff1661220d610fdc565b73ffffffffffffffffffffffffffffffffffffffff161461226c5761223061232f565b6040517f118cdaa70000000000000000000000000000000000000000000000000000000081526004016122639190612724565b60405180910390fd5b565b5f805f9054906101000a900473ffffffffffffffffffffffffffffffffffffffff169050815f806101000a81548173ffffffffffffffffffffffffffffffffffffffff021916908373ffffffffffffffffffffffffffffffffffffffff1602179055508173ffffffffffffffffffffffffffffffffffffffff168173ffffffffffffffffffffffffffffffffffffffff167f8be0079c531659141344cd1fd0a4f28419497f9722a3daafe3b4186f6b6457e060405160405180910390a35050565b5f33905090565b5f604051905090565b5f80fd5b5f80fd5b5f73ffffffffffffffffffffffffffffffffffffffff82169050919050565b5f61237082612347565b9050919050565b61238081612366565b811461238a575f80fd5b50565b5f8135905061239b81612377565b92915050565b5f602082840312156123b6576123b561233f565b5b5f6123c38482850161238d565b91505092915050565b5f819050919050565b6123de816123cc565b82525050565b5f6020820190506123f75f8301846123d5565b92915050565b5f819050919050565b5f61242061241b61241684612347565b6123fd565b612347565b9050919050565b5f61243182612406565b9050919050565b5f61244282612427565b9050919050565b61245281612438565b82525050565b5f60208201905061246b5f830184612449565b92915050565b61247a816123cc565b8114612484575f80fd5b50565b5f8135905061249581612471565b92915050565b5f602082840312156124b0576124af61233f565b5b5f6124bd84828501612487565b91505092915050565b5f80fd5b5f80fd5b5f80fd5b5f8083601f8401126124e7576124e66124c6565b5b8235905067ffffffffffffffff811115612504576125036124ca565b5b6020830191508360018202830111156125205761251f6124ce565b5b9250929050565b5f819050919050565b61253981612527565b8114612543575f80fd5b50565b5f8135905061255481612530565b92915050565b5f805f604084860312156125715761257061233f565b5b5f84013567ffffffffffffffff81111561258e5761258d612343565b5b61259a868287016124d2565b935093505060206125ad86828701612546565b9150509250925092565b5f8115159050919050565b6125cb816125b7565b81146125d5575f80fd5b50565b5f813590506125e6816125c2565b92915050565b5f60ff82169050919050565b612601816125ec565b811461260b575f80fd5b50565b5f8135905061261c816125f8565b92915050565b5f805f805f8060a0878903121561263c5761263b61233f565b5b5f87013567ffffffffffffffff81111561265957612658612343565b5b61266589828a016124d2565b9650965050602061267889828a0161238d565b945050604061268989828a016125d8565b935050606061269a89828a0161260e565b92505060806126ab89828a01612546565b9150509295509295509295565b5f805f604084860312156126cf576126ce61233f565b5b5f84013567ffffffffffffffff8111156126ec576126eb612343565b5b6126f8868287016124d2565b9350935050602061270b86828701612487565b9150509250925092565b61271e81612366565b82525050565b5f6020820190506127375f830184612715565b92915050565b5f805f805f805f60a0888a0312156127585761275761233f565b5b5f88013567ffffffffffffffff81111561277557612774612343565b5b6127818a828b016124d2565b975097505060206127948a828b0161238d565b95505060406127a58a828b016125d8565b945050606088013567ffffffffffffffff8111156127c6576127c5612343565b5b6127d28a828b016124d2565b935093505060806127e58a828b01612487565b91505092959891949750929550565b5f806020838503121561280a5761280961233f565b5b5f83013567ffffffffffffffff81111561282757612826612343565b5b612833858286016124d2565b92509250509250929050565b5f81519050919050565b5f82825260208201905092915050565b5f819050602082019050919050565b61287181612366565b82525050565b5f6128828383612868565b60208301905092915050565b5f602082019050919050565b5f6128a48261283f565b6128ae8185612849565b93506128b983612859565b805f5b838110156128e95781516128d08882612877565b97506128db8361288e565b9250506001810190506128bc565b5085935050505092915050565b5f6020820190508181035f83015261290e818461289a565b905092915050565b5f8083601f84011261292b5761292a6124c6565b5b8235905067ffffffffffffffff811115612948576129476124ca565b5b602083019150836020820283011115612964576129636124ce565b5b9250929050565b5f8083601f8401126129805761297f6124c6565b5b8235905067ffffffffffffffff81111561299d5761299c6124ca565b5b6020830191508360208202830111156129b9576129b86124ce565b5b9250929050565b5f805f805f80606087890312156129da576129d961233f565b5b5f87013567ffffffffffffffff8111156129f7576129f6612343565b5b612a0389828a016124d2565b9650965050602087013567ffffffffffffffff811115612a2657612a25612343565b5b612a3289828a01612916565b9450945050604087013567ffffffffffffffff811115612a5557612a54612343565b5b612a6189828a0161296b565b92509250509295509295509295565b5f612a7a82612427565b9050919050565b612a8a81612a70565b82525050565b5f602082019050612aa35f830184612a81565b92915050565b5f80fd5b5f601f19601f8301169050919050565b7f4e487b71000000000000000000000000000000000000000000000000000000005f52604160045260245ffd5b612af382612aad565b810181811067ffffffffffffffff82111715612b1257612b11612abd565b5b80604052505050565b5f612b24612336565b9050612b308282612aea565b919050565b5f67ffffffffffffffff821115612b4f57612b4e612abd565b5b612b5882612aad565b9050602081019050919050565b828183375f83830152505050565b5f612b85612b8084612b35565b612b1b565b905082815260208101848484011115612ba157612ba0612aa9565b5b612bac848285612b65565b509392505050565b5f82601f830112612bc857612bc76124c6565b5b8135612bd8848260208601612b73565b91505092915050565b5f60208284031215612bf657612bf561233f565b5b5f82013567ffffffffffffffff811115612c1357612c12612343565b5b612c1f84828501612bb4565b91505092915050565b612c31816125b7565b82525050565b5f81519050919050565b5f82825260208201905092915050565b5f5b83811015612c6e578082015181840152602081019050612c53565b5f8484015250505050565b5f612c8382612c37565b612c8d8185612c41565b9350612c9d818560208601612c51565b612ca681612aad565b840191505092915050565b7f4e487b71000000000000000000000000000000000000000000000000000000005f52602160045260245ffd5b60038110612cef57612cee612cb1565b5b50565b5f819050612cff82612cde565b919050565b5f612d0e82612cf2565b9050919050565b612d1e81612d04565b82525050565b5f61012082019050612d385f83018c612715565b612d45602083018b612c28565b8181036040830152612d57818a612c79565b9050612d666060830189612715565b612d7360808301886123d5565b612d8060a0830187612d15565b612d8d60c08301866123d5565b612d9a60e0830185612c28565b612da8610100830184612c28565b9a9950505050505050505050565b7f496e73756666696369656e74207374616b6500000000000000000000000000005f82015250565b5f612dea601283612c41565b9150612df582612db6565b602082019050919050565b5f6020820190508181035f830152612e1781612dde565b9050919050565b7f4e487b71000000000000000000000000000000000000000000000000000000005f52601160045260245ffd5b5f612e55826123cc565b9150612e60836123cc565b9250828203905081811115612e7857612e77612e1e565b5b92915050565b5f604082019050612e915f830185612715565b612e9e60208301846123d5565b9392505050565b5f81519050612eb3816125c2565b92915050565b5f60208284031215612ece57612ecd61233f565b5b5f612edb84828501612ea5565b91505092915050565b7f556e7374616b65206661696c65640000000000000000000000000000000000005f82015250565b5f612f18600e83612c41565b9150612f2382612ee4565b602082019050919050565b5f6020820190508181035f830152612f4581612f0c565b9050919050565b5f81905092915050565b5f612f618385612f4c565b9350612f6e838584612b65565b82840190509392505050565b5f612f86828486612f56565b91508190509392505050565b7f50726f706f73616c2065787069726564000000000000000000000000000000005f82015250565b5f612fc6601083612c41565b9150612fd182612f92565b602082019050919050565b5f6020820190508181035f830152612ff381612fba565b9050919050565b7f4e6f7420696e20636f6d6d6974207068617365000000000000000000000000005f82015250565b5f61302e601383612c41565b915061303982612ffa565b602082019050919050565b5f6020820190508181035f83015261305b81613022565b9050919050565b7f4e656564203230207374616b6520746f20766f746500000000000000000000005f82015250565b5f613096601583612c41565b91506130a182613062565b602082019050919050565b5f6020820190508181035f8301526130c38161308a565b9050919050565b7f416c726561647920636f6d6d69747465640000000000000000000000000000005f82015250565b5f6130fe601183612c41565b9150613109826130ca565b602082019050919050565b5f6020820190508181035f83015261312b816130f2565b9050919050565b7f566f746520686173682063616e6e6f74206265207a65726f00000000000000005f82015250565b5f613166601883612c41565b915061317182613132565b602082019050919050565b5f6020820190508181035f8301526131938161315a565b9050919050565b5f6131a4826123cc565b91506131af836123cc565b92508282019050808211156131c7576131c6612e1e565b5b92915050565b5f6131d88385612c41565b93506131e5838584612b65565b6131ee83612aad565b840190509392505050565b5f6040820190508181035f8301526132128185876131cd565b90506132216020830184612715565b949350505050565b7f4e6f7420696e2072657665616c207068617365000000000000000000000000005f82015250565b5f61325d601383612c41565b915061326882613229565b602082019050919050565b5f6020820190508181035f83015261328a81613251565b9050919050565b7f4e6f20636f6d6d69746d656e74000000000000000000000000000000000000005f82015250565b5f6132c5600d83612c41565b91506132d082613291565b602082019050919050565b5f6020820190508181035f8301526132f2816132b9565b9050919050565b7f416c72656164792072657665616c6564000000000000000000000000000000005f82015250565b5f61332d601083612c41565b9150613338826132f9565b602082019050919050565b5f6020820190508181035f83015261335a81613321565b9050919050565b5f8160f81b9050919050565b5f61337782613361565b9050919050565b5f6133888261336d565b9050919050565b6133a061339b826125b7565b61337e565b82525050565b6133b76133b2826125ec565b61336d565b82525050565b5f819050919050565b6133d76133d282612527565b6133bd565b82525050565b5f6133e8828661338f565b6001820191506133f882856133a6565b60018201915061340882846133c6565b602082019150819050949350505050565b7f48617368206d69736d61746368000000000000000000000000000000000000005f82015250565b5f61344d600d83612c41565b915061345882613419565b602082019050919050565b5f6020820190508181035f83015261347a81613441565b9050919050565b61348a816125ec565b82525050565b5f6080820190508181035f8301526134a98187896131cd565b90506134b86020830186612715565b6134c56040830185612c28565b6134d26060830184613481565b9695505050505050565b7f436f6d6d6974207068617365206e6f7420656e646564000000000000000000005f82015250565b5f613510601683612c41565b915061351b826134dc565b602082019050919050565b5f6020820190508181035f83015261353d81613504565b9050919050565b7f4e487b71000000000000000000000000000000000000000000000000000000005f52603260045260245ffd5b7f4e65656420333030207374616b6520746f2070726f706f7365000000000000005f82015250565b5f6135a5601983612c41565b91506135b082613571565b602082019050919050565b5f6020820190508181035f8301526135d281613599565b9050919050565b5f82905092915050565b7f4e487b71000000000000000000000000000000000000000000000000000000005f52602260045260245ffd5b5f600282049050600182168061362757607f821691505b60208210810361363a576136396135e3565b5b50919050565b5f819050815f5260205f209050919050565b5f6020601f8301049050919050565b5f82821b905092915050565b5f6008830261369c7fffffffffffffffffffffffffffffffffffffffffffffffffffffffffffffffff82613661565b6136a68683613661565b95508019841693508086168417925050509392505050565b5f6136d86136d36136ce846123cc565b6123fd565b6123cc565b9050919050565b5f819050919050565b6136f1836136be565b6137056136fd826136df565b84845461366d565b825550505050565b5f90565b61371961370d565b6137248184846136e8565b505050565b5b818110156137475761373c5f82613711565b60018101905061372a565b5050565b601f82111561378c5761375d81613640565b61376684613652565b81016020851015613775578190505b61378961378185613652565b830182613729565b50505b505050565b5f82821c905092915050565b5f6137ac5f1984600802613791565b1980831691505092915050565b5f6137c4838361379d565b9150826002028217905092915050565b6137de83836135d9565b67ffffffffffffffff8111156137f7576137f6612abd565b5b6138018254613610565b61380c82828561374b565b5f601f831160018114613839575f8415613827578287013590505b61383185826137b9565b865550613898565b601f19841661384786613640565b5f5b8281101561386e57848901358255600182019150602085019450602081019050613849565b8683101561388b5784890135613887601f89168261379d565b8355505b6001600288020188555050505b50505050505050565b5f6040820190508181035f8301526138ba8186886131cd565b905081810360208301526138cf8184866131cd565b905095945050505050565b5f6060820190506138ed5f830186612715565b6138fa6020830185612715565b61390760408301846123d5565b949350505050565b7f5374616b65206661696c656400000000000000000000000000000000000000005f82015250565b5f613943600c83612c41565b915061394e8261390f565b602082019050919050565b5f6020820190508181035f83015261397081613937565b9050919050565b7f4e6f742066696e616c697a6564000000000000000000000000000000000000005f82015250565b5f6139ab600d83612c41565b91506139b682613977565b602082019050919050565b5f6020820190508181035f8301526139d88161399f565b9050919050565b7f446964206e6f742072657665616c0000000000000000000000000000000000005f82015250565b5f613a13600e83612c41565b9150613a1e826139df565b602082019050919050565b5f6020820190508181035f830152613a4081613a07565b9050919050565b7f416c726561647920636c61696d656400000000000000000000000000000000005f82015250565b5f613a7b600f83612c41565b9150613a8682613a47565b602082019050919050565b5f6020820190508181035f830152613aa881613a6f565b9050919050565b7f4e6f2072657761726400000000000000000000000000000000000000000000005f82015250565b5f613ae3600983612c41565b9150613aee82613aaf565b602082019050919050565b5f6020820190508181035f830152613b1081613ad7565b9050919050565b7f526577617264207472616e73666572206661696c6564000000000000000000005f82015250565b5f613b4b601683612c41565b9150613b5682613b17565b602082019050919050565b5f6020820190508181035f830152613b7881613b3f565b9050919050565b5f6060820190508181035f830152613b988186886131cd565b9050613ba76020830185612715565b613bb460408301846123d5565b95945050505050565b7f416c72656164792066696e616c697a65640000000000000000000000000000005f82015250565b5f613bf1601183612c41565b9150613bfc82613bbd565b602082019050919050565b5f6020820190508181035f830152613c1e81613be5565b9050919050565b7f52657665616c207068617365206e6f7420656e646564000000000000000000005f82015250565b5f613c59601683612c41565b9150613c6482613c25565b602082019050919050565b5f6020820190508181035f830152613c8681613c4d565b9050919050565b7f4c656e677468206d69736d6174636800000000000000000000000000000000005f82015250565b5f613cc1600f83612c41565b9150613ccc82613c8d565b602082019050919050565b5f6020820190508181035f830152613cee81613cb5565b9050919050565b7f566f746572206c697374206d69736d61746368000000000000000000000000005f82015250565b5f613d29601383612c41565b9150613d3482613cf5565b602082019050919050565b5f6020820190508181035f830152613d5681613d1d565b9050919050565b5f8160601b9050919050565b5f613d7382613d5d565b9050919050565b5f613d8482613d69565b9050919050565b613d9c613d9782612366565b613d7a565b82525050565b5f613dad8284613d8b565b60148201915081905092915050565b613dc581612527565b82525050565b5f8154613dd781613610565b613de18186612c41565b9450600182165f8114613dfb5760018114613e1157613e43565b60ff198316865281151560200286019350613e43565b613e1a85613640565b5f5b83811015613e3b57815481890152600182019150602081019050613e1c565b808801955050505b50505092915050565b5f606082019050613e5f5f830186613dbc565b8181036020830152613e718185613dcb565b9050613e806040830184612c28565b949350505050565b5f6040820190508181035f830152613ea18185876131cd565b9050613eb06020830184612c28565b94935050505056fea26469706673582212209cb9976c39345b7c8bd4ddac0e93e8aa77fa13d27741e9d7393050105824e03c64736f6c63430008180033","linkReferences":{}},"methodIdentifiers":{"MIN_VOTE_COUNT()":"c41bcc34","SLASH_FAILED_PROPOSAL()":"c28dac38","SLASH_UNREVEALED()":"9edf4ac4","STAKE_TO_PROPOSE()":"887c7640","STAKE_TO_VOTE()":"5e7f0c97","claimReward(string)":"bb8c9797","commitVote(string,bytes32)":"56d8f6fe","createProposal(string,address,bool,string,uint256)":"91e832bb","finalize(string,address[],uint256[])":"dd77ef16","getProposalVoters(string)":"9fe10fa1","owner()":"8da5cb5b","proposals(string)":"ffa0d2a4","renounceOwnership()":"715018a6","revealVote(string,address,bool,uint8,bytes32)":"83366889","stake(uint256)":"a694fc3a","stakes(address)":"16934fc4","startRevealPhase(string,uint256)":"87c9baf9","tagStorage()":"19ec4384","token()":"fc0c546a","transferOwnership(address)":"f2fde38b","unstake(uint256)":"2e17de78"},"id":34}